:1000000089C00000A2C00000A0C000009EC0000087
:100010009CC000009AC0000098C0000096C000007C
:1000200094C0000092C0000090C00000CDC300004A
:100030008CC000008AC0000088C0000086C000009C
:1000400084C0000082C0000080C000007EC00000AC
:100050007CC000007AC0000078C0000019C1000018
:1000600074C0000072C0000070C000006EC00000CC
:100070006CC00000AB04CD04BA05CD04BA050F0571
:100080002E05BA058105930526034E004500530051
:1000900070006100640000001803650073006B00CD
:1000A0006500720064006100000004030904090295
:1000B0002200010100C03209040000010300000019
:1000C0000921110100012232000705810308000AFD
:1000D0001201100100000008EB03432000000102A0
:1000E000000105010905A1010901A100050109306F
:1000F000093115FF2501750895028182C00509198E
:1001000001290415002501750195048102750695E4
:10011000018101C011241FBECFEFD2E0DEBFCDBFF1
:1001200011E0A0E0B1E0EAECFFE002C005900D9222
:10013000AE30B107D9F711E0AEE0B1E001C01D92D9
:10014000A63AB107E1F758D03EC75ACF9BB1809588
:10015000906389238BB90895E0919601F0919701FE
:100160008191F0939701E0939601E459F14031F4C5
:1001700024E131E030939701209396012FB7F89452
:10018000909198019150909398012FBF0895CF932B
:10019000DF9384B7877F84BF88E10FB6F89480939C
:1001A0006000109260000FBE90E080E80FB6F894F7
:1001B00080936100909361000FBE80E190E0909386
:1001C000CD008093CC0086E08093CA0082E08093CB
:1001D000C800C9ECD0E088E18883539A5A9A8AB162
:1001E00080638AB98BB180638BB9E3D288E9888355
:1001F00080E2DF91CF91AACFCADF2FB7F89484E1D4
:1002000091E090939501809394019093970180934E
:1002100096012FBF789480E091E008D6B8D4FBCF48
:1002200080E194CF80E292CF80E190DF80E091E0A6
:10023000DAD5811102C080E289DF8091E20084601A
:100240008093E200089580E091E0B3C480910B01B7
:1002500090910C01009729F0019790930C018093E5
:100260000B0108950F931F9380910E0190910F0140
:10027000A0911001F90180839183A28383E090E033
:10028000F8019183808381E01F910F910895089573
:100290001F920F920FB60F9211242F933F934F93FB
:1002A0005F936F937F938F939F93AF93BF93EF93DE
:1002B000FF938091CE0090919D01943029F52FB746
:1002C000F894909198012FBF9038F1F0E09194014B
:1002D000F09195018083E0919401F0919501CF0117
:1002E000019690939501809394018459914021F453
:1002F00084E191E0928381839FB7F8948091980183
:100300008F5F809398019FBF9FB7F8948091980169
:100310009FBF843050F020DF80930E011DDF80935B
:100320000F011ADF8093100117DFFF91EF91BF914A
:10033000AF919F918F917F916F915F914F913F917D
:100340002F910F900FBE0F901F901895292F3327D4
:1003500023303105B9F05CF42130310569F12230E8
:10036000310579F582E290E02EEA30E02EC02132AC
:100370003105E9F02232310521F582E390E022EEE9
:1003800030E023C099278130910541F082309105FA
:1003900041F0892BB1F4EAEAF0E005C0E8E9F0E0C9
:1003A00002C0E8E8F0E0849190E09F010EC089E08F
:1003B00090E020EC30E009C082E190E020ED30E0F8
:1003C00004C080E090E020E030E0FA013183208337
:1003D000089528E030E040E02817390720F44F5F07
:1003E000220F331FF9CF842F8295807F0895809349
:1003F000E900EBEEF0E0808181608083EDEEF0E0DB
:1004000010826093EC0040838091EE00881F882763
:10041000881F08951092F40080E08093E900109204
:10042000F0001092E8001092ED009091EB009E7F9A
:100430009093EB008F5F853081F7089580919E0146
:1004400087FD05C08091E80080FF0EC012C080913A
:10045000E80082FD05C080919D018111F8CF0895CB
:100460008091E8008B7708C080919D018111EACFCF
:1004700008958091E8008E778093E800089585E6DE
:100480009091EC0090FF05C09091E80090FF05C0AE
:100490001DC09091E80092FD19C090919D01992393
:1004A000B9F090919D019530A9F09091EB0095FDE8
:1004B00013C09091E10092FFE3CF9091E1009B7F08
:1004C0009093E1008150E1F684E0089580E0089582
:1004D00082E0089583E0089581E00895EF92FF920D
:1004E0000F931F93CF93DF93EC018B017A01C7DF4A
:1004F00081111DC001151105C9F08091E80085FD2D
:100500000EC08091E8008E778093E800E114F1043A
:1005100071F3F7010995813051F785E008C08881B2
:100520008093F100015011092196E4CF80E0DF9122
:10053000CF911F910F91FF90EF9008952091A4010A
:100540003091A5012617370748F06115710539F478
:100550002091E8002E772093E80001C0B90130E037
:1005600061157105A1F12091E80023FD3CC02091A7
:10057000E80022FF06C08091E80082FF2BC080E0E7
:10058000089520919D01222381F120919D01253024
:1005900071F12091E80020FFE3CF2091F200FC01EF
:1005A000CF016115710549F0283038F481918093AD
:1005B000F100615071092F5FF3CF31E0283009F06D
:1005C00030E02091E8002E772093E800C9CF311168
:1005D000CACFD1CF80919D01882339F080919D01B0
:1005E000853049F604C081E0089582E0089583E0F3
:1005F00008952091A4013091A5012617370748F0EE
:100600006115710539F42091E8002E772093E800F8
:1006100001C0B90130E061157105A9F12091E80030
:1006200023FD3DC02091E80022FF06C08091E80034
:1006300082FF2CC080E0089520919D01222389F142
:1006400020919D01253079F12091E80020FFE3CF32
:100650002091F200FC01CF016115710551F02830A5
:1006600040F484918093F100615071092F5F3196BD
:10067000F2CF31E0283009F030E02091E8002E7709
:100680002093E800C8CF3111C9CFD0CF80919D0110
:10069000882339F080919D01853041F604C081E0C6
:1006A000089582E0089583E008956115710529F4A5
:1006B0002091E8002B772093E8006115710569F11E
:1006C0002091E80023FD2EC020919D01222371F18D
:1006D00020919D01253061F12091E80022FFF0CFAB
:1006E000FC018091F200882371F09F012F5F3F4F42
:1006F000C9014091F1004083615071096115710594
:10070000B9F2F901EECFCF01D3CF80919D018823BB
:1007100069F080919D01853059F08091E80080FF5B
:10072000F4CF02C081E0089580E0089582E008954A
:1007300083E0089543D045D010929D0110929B0113
:1007400010929A011092990184E089BD89B5826066
:1007500089BD09B400FEFDCF8091D800982F9F7706
:100760009093D80080688093D800809163008E7F3A
:10077000809363008091D8008F7D8093D800809112
:10078000E0008E7F8093E0008091E1008E7F809377
:10079000E1008091E20081608093E2008091E100BD
:1007A000877F8093E1008091E20088608093E2007F
:1007B0000895C0DF81E080939C0108951092E200CB
:1007C00008951092E10008951F920F920FB60F92B4
:1007D00011242F933F934F935F936F937F938F9346
:1007E0009F93AF93BF93EF93FF938091E10080FFBE
:1007F0001CC08091E20080FF18C08091E1008E7FD4
:100800008093E1008091E2008E7F8093E2008091EE
:10081000E20080618093E2008091D8008062809342
:10082000D80019BC10929D01FDDC8091E10084FF8D
:100830002AC08091E20084FF26C084E089BD89B58A
:10084000826089BD09B400FEFDCF8091D8008F7D04
:100850008093D8008091E1008F7E8093E1008091A9
:10086000E2008F7E8093E2008091E20081608093BD
:10087000E20080919B01882311F084E001C081E0B7
:1008800080939D01CDDC8091E10083FF23C08091A6
:10089000E20083FF1FC08091E100877F8093E10029
:1008A00082E080939D0110929B018091E1008E7FF8
:1008B0008093E1008091E2008E7F8093E20080913E
:1008C000E20080618093E200A5DD42E060E080E02C
:1008D0008EDD5CD18091E10082FF0AC08091E20050
:1008E00082FF06C08091E1008B7F8093E100AEDC47
:1008F000FF91EF91BF91AF919F918F917F916F91F8
:100900005F914F913F912F910F900FBE0F901F90CD
:1009100018951F93CF93DF93CDB7DEB7AA970FB685
:10092000F894DEBF0FBECDBFEEE9F1E08091F1009B
:10093000819321E0E63AF207C9F720919E013091B8
:100940009F01832F90E08A30910508F013C1FC01CC
:10095000E65CFF4F15C3203881F0223809F00AC148
:100960008091A20187708093E9008091EB0085FB64
:10097000882780F91092E90006C080919901909132
:100980009A01911182609091E800977F9093E8001E
:100990008093F1001092F100BFC0822F8D7F09F08B
:1009A000E9C0222319F0223061F0D5C08091A00166
:1009B000813009F0D0C0333009F080E080939A0193
:1009C00028C08091A001811124C02091A20127702C
:1009D00009F4C1C02093E9008091EB0080FFBBC007
:1009E0008091EB00333011F4806211C080618093FC
:1009F000EB0081E090E0022E01C0880F0A94EAF734
:100A00008093EA001092EA008091EB008860809366
:100A1000EB001092E9008091E800877F80C02111EF
:100A2000A9C01091A0018091E800877F8093E80021
:100A300005DD8091E80080FD05C080919D01811158
:100A4000F8CF89C0812F8F7711F093E001C092E039
:100A500090939D0180688093E3007DC020582230F0
:100A600008F088C08091A0019091A1018C3D23E005
:100A7000920781F583E08A838AE289834FB7F894ED
:100A8000DE01139620E03EE051E2E32FF0E05093C8
:100A90005700E49120FF03C0E295EF703F5FEF70D5
:100AA00090E39E0F9A3310F0E95C01C0E92F8E2F7E
:100AB00090E08D939D932F5F243139F74FBF809144
:100AC000E800877F8093E8006AE270E0CE0101963B
:100AD00035DD11C0AE014F5F5F4F6091A20136DC82
:100AE0000097C9F12091E800277F2093E800BC011E
:100AF00089819A817EDD8091E8008B778093E80080
:100B00002AC02038B9F58091E800877F8093E800FB
:100B100080919B018093F1008091E8008E77809313
:100B2000E8008CDC18C0211125C09091A001923002
:100B300090F48091E800877F8093E80090939B0178
:100B40007DDC80919B01882311F084E001C083E06B
:100B500080939D0169DB8091E80083FF0DC0809147
:100B6000EB0080628093EB008091E800877F8093A8
:100B7000E80002C068DBEFCFAA960FB6F894DEBF9C
:100B80000FBECDBFDF91CF911F9108950895CF93F0
:100B900080919D01882359F0C091E900C77010929F
:100BA000E9008091E80083FDB4DEC093E900CF91B5
:100BB00008958F929F92AF92BF92CF92DF92EF9261
:100BC000FF920F931F93CF93DF9300D01F92CDB767
:100BD000DEB77C01ADB6BEB68091E80083FFEEC003
:100BE000F701808190E02091A2013091A3012817A4
:100BF000390709F0E3C080919F01833009F490C068
:100C000030F4813071F0823009F4C0C0D7C08A302E
:100C100009F4A5C08B3009F490C0893009F0CEC02A
:100C20004CC080919E01813A09F0C8C08DB69EB635
:100C30008091E800877F8093E8001A821982809172
:100C4000A0011091A1018B83F701478150E08DB77E
:100C50009EB7841B950B0FB6F8949EBF0FBE8DBF39
:100C6000EDB7FEB731966F0160E070E0CF01A4D11F
:100C70004FEF410F8E010F5F1F4F9601BE016D5F59
:100C80007F4FC701EFDAF70185819681009721F048
:100C9000478150E0B60187D11092E90069817A81DD
:100CA000C6014CDC8091E8008B778093E8000FB69A
:100CB000F8949EBE0FBE8DBE81C080919E01813290
:100CC00009F07CC08091E800877F8093E800009164
:100CD000A4011091A5019090A0018090A1018DB771
:100CE0009EB7801B910B0FB6F8949EBF0FBE8DBFB1
:100CF000EDB7FEB731966F01B801CF01D6DC4FEFEB
:100D0000480D9601692DC701C2DA8091E8008E77FF
:100D10008093E8000FB6F894BEBE0FBEADBE4EC0C5
:100D200080919E01813A09F049C08091E800877F57
:100D30008093E800F701808539C080919E0181325F
:100D4000E9F58091E800877F8093E8009091A00109
:100D500081E0911101C080E0F70180872EC0809171
:100D60009E01813259F58091E800877F8093E800E9
:100D70008091A0019091A101882736E096958795F2
:100D80003A95E1F7F7019287818717C080919E011C
:100D9000813AA1F48091E800877F8093E800F70111
:100DA0008185928596958795969587958093F10094
:100DB0008091E8008E778093E80040DB0FB6F894CE
:100DC000BEBE0FBEADBE0F900F900F90DF91CF91C2
:100DD0001F910F91FF90EF90DF90CF90BF90AF9059
:100DE0009F908F900895CF93DF93FC01DC011896BC
:100DF00085E0ED0119928A95E9F781E0808784EF1B
:100E000091E092878187228133818481882311F048
:100E1000C4E001C0C0E0D181C901DBDA4C2F482B0E
:100E2000426061EC8D2FDF91CF91E1CA5F926F92AA
:100E30007F928F929F92AF92BF92CF92DF92EF926A
:100E4000FF920F931F93CF93DF9300D01F92CDB7E4
:100E5000DEB77C01ADB6BEB680919D01843009F04D
:100E600077C0F70181818093E9008091E80085FFD8
:100E70006FC08DB69EB6478150E08DB79EB7841B7C
:100E8000950B0FB6F8949EBF0FBE8DBFEDB7FEB7A2
:100E900031966F011B821A82198260E070E0CF01E7
:100EA0008BD08E010F5F1F4F960140E0BE016D5F3A
:100EB0007F4FC701D7D9682EF70181859285892B8D
:100EC00041F021E083859485892B09F020E0722E82
:100ED00001C0712CF701058116810115110589F0FA
:100EE00049815A81B801C60151D055245394892BA8
:100EF00009F4512CF701478150E0B601C80153D0E5
:100F000001C0512C29813A81232BE9F0611004C0E2
:100F1000511002C070FE17C0F70181859285948739
:100F2000838781818093E9008B8181118093F10017
:100F300069817A8140E050E0C601D0DA8091E80012
:100F40008E778093E8000FB6F8949EBE0FBE8DBEDC
:100F50000FB6F894BEBE0FBEADBE0F900F900F90AF
:100F6000DF91CF911F910F91FF90EF90DF90CF9085
:100F7000BF90AF909F908F907F906F905F900895FB
:100F8000EE0FFF1F0590F491E02D0994FB01DC01A9
:100F900004C08D910190801921F441505040C8F750
:100FA000881B990B0895FB01DC0102C001900D9292
:100FB00041505040D8F70895DC0101C06D93415075
:0A0FC0005040E0F70895F894FFCFC9
:0E0FCA000001080000110103000000000000FB
:00000001FF
